:020000040800F2
:10000000D0E100243903000881680008695D000818
:1000100079680008D9060008018100080000000086
:1000200000000000000000000000000061790008EE
:10003000F10C000800000000B96800089979000878
:100040005703000857030008570300085703000828
:100050005703000857030008570300085703000818
:10006000570300085703000857030008E10600087B
:1000700057030008570300085703000857030008F8
:1000800057030008570300085703000857030008E8
:1000900057030008570300085703000857030008D8
:1000A00057030008570300085703000857030008C8
:1000B00057030008570300085703000857030008B8
:1000C00057030008570300085703000857030008A8
:1000D0005703000857030008570300085703000898
:1000E00057030008570300080000000057030008EA
:1000F0005703000857030008570300085703000878
:100100005703000857030008570300085703000867
:10011000570300085703000857030008517B0008E5
:100120005703000857030008570300085703000847
:100130005703000857030008570300085703000837
:1001400000000000000000000000000000000000AF
:100150005703000857030008570300085703000817
:100160005703000857030008570300085703000807
:1001700057030008570300085703000857030008F7
:1001800057030008570300085703000857030008E7
:1001900057030008570300085703000857030008D7
:1001A00057030008570300085703000857030008C7
:1001B00057030008570300085703000857030008B7
:1001C00057030008570300085703000857030008A7
:1001D0005703000857030008570300085703000897
:1001E0005703000857030008570300085703000887
:1001F0005703000857030008570300085703000877
:100200005703000857030008570300085703000866
:100210005703000857030008570300085703000856
:1002200057030008570300085703000800000000A8
:100230005703000857030008000000005703000898
:100240005703000857030008570300085703000826
:100250005703000857030008570300085703000816
:100260005703000857030008570300085703000806
:100270005703000857030008570300080000000058
:100280005703000857030008570300080000000048
:10029000000000005703000800F002F800F03CF8EE
:1002A0000AA090E8000C82448344AAF10107DA45D1
:1002B00001D100F031F8AFF2090EBAE80F0013F0E7
:1002C000010F18BFFB1A43F001031847A49D00005B
:1002D000C49D0000103A24BF78C878C1FAD85207EC
:1002E00024BF30C830C144BF04680C6070470000B0
:1002F0000023002400250026103A28BF78C1FBD82F
:10030000520728BF30C148BF0B6070471FB509F0C6
:1003100025F91FBD10B510BD00F070F81146FFF7AC
:10032000F5FF08F0E9FA00F08EF803B4FFF7F2FFEA
:1003300003BC00F091F800000A4880470A48804753
:100340000A480047FEE7FEE7FEE7FEE7FEE7FEE7B6
:10035000FEE7FEE7FEE7FEE705480649064A074BCB
:1003600070470000090D0008617A00089902000832
:10037000D0DB0024D0E10024D0DD0024D0DD002437
:100380004FF0000200B5134694469646203922BF2E
:10039000A0E80C50A0E80C50B1F12001BFF4F7AF79
:1003A000090728BFA0E80C5048BF0CC05DF804EB5B
:1003B000890028BF40F8042B08BF704748BF20F8C9
:1003C000022B11F0804F18BF00F8012B70477047C7
:1003D0007047704710B500F009F8006810BD10B5FF
:1003E000044600F003F8046010BD000000487047A8
:1003F0008000002400487047800000247546FFF705
:10040000F9FFAE4605006946534620F007008546D1
:1004100018B020B5FFF7A0FFBDE820404FF0000660
:100420004FF000074FF000084FF0000BAC46ACE86F
:10043000C009ACE8C009ACE8C009ACE8C00921F0CB
:1004400007018D46704710B50446AFF30080204683
:10045000BDE81040FFF769BF01491820ABBEFEE7B9
:100460002600020070470000B0B50446006842F262
:10047000001140F48070C4F20201884204D142F2BB
:100480000830C4F2020003E046F20830C5F602006C
:10049000006810F4403F10D004F056F8616805463B
:1004A000B1F5803F05D0B1F5403F22D0B1F5003F16
:1004B00020D1080CB5FBF0F51CE04FF40020002122
:1004C00003F062F861680546A1F580224FEAB24266
:1004D0000A2A0FD8DFE802F0060606060606494B90
:1004E0004D4F51006FF0010000EA5140B5FBF0F5AF
:1004F00000E0AD0802F05CFD41F2030188420DD836
:10050000206842F60151C0F231118D4281682CBF42
:1005100041F4807121F480718160B0BD4BF62140BF
:10052000C0F2BE00854205D82068816821F4407180
:100530008160B0BD47F64100C0F27D10854203D80E
:1005400020680122816808E020684FF28101C0F232
:10055000FA218D42816804D8022262F30921816068
:10056000B0BD41F440718160B0BD2D09C2E76D0995
:10057000C0E7AD09BEE7ED09BCE72D0ABAE7000008
:1005800010B5846B616D11F0500F616D05D0C90617
:100590000ED4E16CC96C884710BD41F400706065F1
:1005A00020680168090707D4C068800716D10AE0EF
:1005B000204600F041FE10BD05F032FE70B120680B
:1005C000C06880040AD4606D20F480706065606D3E
:1005D000C00403D4606D40F001006065204600F067
:1005E00017FE10BD0000000080B5806B416D41F02A
:1005F00040014165816D41F00401816500F01CFE00
:1006000080BD00000000000080B5806B00F004FE9B
:1006100080BD00000000000070B50446006805F0D1
:10062000EBFD00281CBF002070BD20683F22C8F2EF
:1006300000028168114209D0606D40F010006065D1
:10064000A06D40F00100A065012070BD05F0ACFD7B
:1006500002F0B6FC42F2000546F20031C4F2020597
:10066000226805F5807605F54073C5F60201B242B1
:1006700008BF1946AA42054608BF1946084605F0B4
:10068000AFFD21680A46B14204BF42F20002C4F243
:100690000202002818BF8A4203D121680868C007F7
:1006A00008D0002070BD00BF21680868C0074FF067
:1006B000000010D1084605F09FFD10B9206805F034
:1006C00073FD02F07DFC401B0328EDD32068006819
:1006D000C007E9D1B0E770BDFEE7000000000000F0
:1006E00080B54BF23010C2F2004000F0C5FF80BD73
:1006F00040F20F420168C4F20202914210DC6F2204
:10070000C4F20202914220DC3F22C4F20202914272
:1007100036DC1022C4F20202914254D028224EE06C
:1007200040F26F42C4F2020291421ADC40F23F42B0
:10073000C4F2020291422ADC40F21042C4F20202E8
:10074000914240D040F2284239E09F22C4F2020296
:10075000914225DC7022C4F20202914233D08822F9
:100760002DE040F29F42C4F2020291421FDC40F2AF
:100770007042C4F20202914225D040F288421EE04B
:100780004022C4F2020291421DD0582217E040F2EA
:100790004042C4F20202914215D040F258420EE0AB
:1007A000A022C4F2020291420DD0B82207E040F22A
:1007B000B842C4F20202914205D040F2A042C4F213
:1007C000020291421AD1D0F800C06FF00F024AF62F
:1007D000AB2352FA8CF2CAF6AA23A2FB033109A377
:1007E0005F2AC1F302115B5C40F2FF312CEA010188
:1007F000C36588BF0431816508467047016821F0F0
:10080000FF01F8E7000610160006101600000000B1
:1008100010B545F257420168C5F6020291420EDC5E
:1008200045F22F42C5F60202914217DC45F208421A
:10083000C5F60202914226D045F21C421FE045F265
:100840007F42C5F60202914211DC45F25842C5F6DC
:100850000202914217D045F26C4210E045F230425C
:10086000C5F6020291420ED045F2444207E045F23D
:100870009442C5F60202914205D045F28042C5F687
:100880000202914219D101784CF6CD42CCF6CC420D
:1008900045F600030839C5F60203A1FB021203F175
:1008A0008001120903EB820302F01F020366012399
:1008B000416603FA02F1816610BD02784AF6AB2365
:1008C000CAF6AA234FF0080E103AA2FB032340F207
:1008D0000F42C4F202024FEA131C914202F1AA0431
:1008E000624688BF0EEB131240F60003A142C4F229
:1008F000020303F1800128BF6246D3E70000000035
:1009000010B50279511E072988BF10BD45F2574C1A
:1009100045F6FC0E0368C5F6020CC5F6020E6345EB
:100920000EF1440C0EDC45F22F44C5F60204A3423E
:1009300017DC45F20844C5F60204A34226D045F26E
:100940001C441FE045F27F44C5F60204A34211DCBB
:1009500045F25844C5F60204A34217D045F26C4450
:1009600010E045F23044C5F60204A3420ED045F231
:10097000444407E045F28044C5F60204A34205D092
:1009800045F29444C5F60204A34209D10EEB82025B
:10099000C2660122C0F870C002FA01F1416710BDC1
:1009A00040F6FC0EC4F2020E0EF1440CEEE700001D
:1009B0008169B1F5005F07D079B9816A022912D047
:1009C000012916D079B112E0816A03290FD8DFE836
:1009D00001F0020A021001207047816A03293CBF1E
:1009E0000120704703D1C06AC0F300607047002047
:1009F0007047C06AA0F1C070B0FA80F0400970473B
:100A000070B540F26F44D0F800E0C4F20204D0F8B0
:100A100058C0A64519DC9F25C4F20205AE4531DC5D
:100A20005725C4F20205AE4556DC1025C4F2020576
:100A3000AE4500F092802825C4F20205AE4500F0D4
:100A40008C804025C4F2020584E045F22F45C5F6AE
:100A50000205AE452BDC40F2B745C4F20205AE45B7
:100A600048DC40F27045C4F20205AE4575D040F254
:100A70008845C4F20205AE456FD040F2A045C4F2ED
:100A8000020567E040F22745C4F20205AE4540DCAE
:100A9000A025C4F20205AE455FD0B825C4F2020518
:100AA000AE455AD040F21045C4F2020552E045F27C
:100AB0006B45C5F60205AE453CDC45F23045C5F652
:100AC0000205AE4549D045F24445C5F60205AE459E
:100AD00043D045F258453BE05825C4F20205AE45E7
:100AE0003BD07025C4F20205AE4536D08825C4F24D
:100AF00002052FE040F2B845C4F20205AE452CD005
:100B000045F20845C5F60205AE4526D045F21C451E
:100B10001EE040F22845C4F20205AE451DD040F269
:100B20004045C4F20205AE4517D040F25845C4F224
:100B300002050FE045F26C45C5F60205AE450CD046
:100B400045F29445C5F60205AE4506D045F280450E
:100B5000C5F60205AE4540F0C980456EC66E002E52
:100B6000866E6E601CBFD0E91C566E60A64515DC13
:100B70009F24C4F20204A6452BDC5724C4F20204CD
:100B8000A6454EDC1024C4F20204A64576D02824E3
:100B9000C4F20204A64571D040246BE045F22F4414
:100BA000C5F60204A64527DC40F2B744C4F20204AD
:100BB000A64542DC40F27044C4F20204A6455DD072
:100BC00040F28844C4F20204A64557D040F2A04443
:100BD00050E040F22744C4F20204A6453CDCA024C5
:100BE000C4F20204A64549D0B824C4F20204A645C2
:100BF00044D040F210443DE045F26B44C5F6020497
:100C0000A6454FDC45F23044C5F60204A6455BD04C
:100C100045F24444C5F60204A64555D045F2584471
:100C20004EE05824C4F20204A64527D07024C4F232
:100C30000204A64522D088241CE040F2B844C4F245
:100C40000204A6451AD045F20844C5F60204A6459A
:100C50003AD045F21C4433E040F22844C4F2020486
:100C6000A6450BD040F24044C4F20204A64505D08C
:100C700040F25844C4F20204A64537D104683F2527
:100C80008668C06D00F01F00402E05FA00F0CCF819
:100C90000800206820F480202060636021D0A160DB
:100CA000E26070BD45F26C44C5F60204A6450BD067
:100CB00045F28044C5F60204A64505D045F29444A9
:100CC000C5F60204A64511D10468C66D806806F019
:100CD0001F060125402805FA06F6CCF8046063607B
:100CE00002D1A260E16070BDA160E26070BD000051
:100CF0007047000000000000EFF3108072B600BFE4
:100D0000FEE700000000000044F60C00C5F60200FB
:100D1000016841F00201016050F8081C8904FBD50C
:100D200070470000000000002DE9F04182B0044649
:100D300090F85000012803D1022002B0BDE8F081F4
:100D4000012084F8500000200190009042F200073A
:100D5000C4F202072068B8420BD107F580780D462F
:100D6000404605F059FA0646206805F055FA30432A
:100D70000AD0606D40F0200060650120002184F8F9
:100D8000501002B0BDE8F08146F200002168C5F6BF
:100D900002004145064608BF3E46B94208BF0E461E
:100DA0002A6841F48071D6F80833002A23F44042BF
:100DB00015D042F2001C6B68C4F2020C614542EA95
:100DC0000301C6F808131BD1384605F019FA074687
:100DD000404605F015FA3843B0B10020CEE742F2A4
:100DE0000013C6F80823C4F20203994216D138460C
:100DF00005F006FA0546404605F002FA28430FE0E2
:100E000005F0FEF90028E8D1D6F8080340F61F7176
:100E100088432968AA680843104309E005F0F0F9FF
:100E200008B10020AAE7D6F8080340F61F718843EE
:100E3000C6F808030020A1E72DE9F04782B00022A0
:100E40000192044690F85000012803D1022002B01C
:100E5000BDE8F087012084F8500020680D4605F0B9
:100E6000D7F928B1606D40F0200060650120EDE009
:100E70002A68002A0FD492FAA2F00123B0FA80F077
:100E8000110308BF900E216800F01F0003FA00F064
:100E9000CB691843C8612068696805F0D1F92068FA
:100EA00005F0B6F90646206805F09EF9304368D192
:100EB00020682968AA6805F0F7F941F20000C5F634
:100EC0000040006800F07040B0F1805F06D12068FB
:100ED0006A690E21C06801EA50030CE02068C1680D
:100EE0006A69C068C9064FEA500002D400F00E03D8
:100EF00001E000F0080329692068042928D1016E67
:100F00002A6801F0F841B1EB826F4FEA826103D1A8
:100F1000026E22F000420266426E02F0F8428A42FD
:100F200003D1426E22F000424266826E02F0F84225
:100F30008A4203D1826E22F000428266C26E02F0C3
:100F4000F8428A421DD1C16E21F00041C16618E00D
:100F500002FA03F32A6805F0EFF9687E0138B0FA67
:100F600080F120684A092969D20705F0F1F9287E45
:100F70000138B0FA80F120684A092969D20205F0E7
:100F8000CFF9206805F038F908B100205EE00026AE
:100F900020682968EA68C4F2527605F099F9E86891
:100FA00006F52D0188424CD142F200112068C4F2AE
:100FB0000201884226D042F20001C4F202018842B6
:100FC0003BD11F222968C1F2F042914220DD40F25C
:100FD000FF72C2F63062914240F3838040F6000215
:100FE000C2F63062914200F0D58041F20002C3F2B5
:100FF0006022914200F0AD800022C4F22132914281
:101000001CD0CCE01F222968C1F2F042914262DC80
:101010000722C0F69042914273DC0222C0F23042B5
:10102000914200F0A4800422C0F66002914240F098
:10103000B6804026C1F6201600E00026314605F0B5
:1010400023F92868B0F1FF3F06DD0020002184F875
:10105000501002B0BDE8F08746F2000842F20007E7
:10106000C5F60208C4F2020708F54079216807F5C1
:10107000807607F540724846B14208BF1046B94233
:1010800008BF104605F0A8F8216842F2001241F4AA
:101090008071C4F202029142824608D1384605F0BE
:1010A000ABF80746304605F0A7F8384302E0404663
:1010B00005F0A2F800287FF4D5AE5FEA0A2029687F
:1010C0002ED40020CCF68430814229D120684045BE
:1010D0006FD00020BAE740F2FF72C2F63062914250
:1010E0002BDC2022C1F2F042914237D040F2004284
:1010F000C2F60022914252D140F60006C2F6306696
:101100009CE70822C0F6904291422CD01022C1F2F6
:10111000C002914243D140F20016C2F280168DE720
:101120005FEACA1025D40020CCF25270814220D14F
:10113000206840455ED0002088E740F60002C2F6F5
:101140003062914226D041F20002C3F26022914205
:1011500025D142F20006C3F290666FE740F2002606
:10116000C2F2B0566AE78026C1F6505666E70126FD
:1011700064E75FEA4A204FF000003FF567AF0022C6
:10118000CCF6B87291427FF461AF2068404536D00A
:1011900000205BE741F20006C3F260264EE7002222
:1011A0000026C4F68432914204BF0026C4F6B87605
:1011B00044E74AF40001484605F0AAF840F250001E
:1011C00042F66351C2F20040C0F23E51006880090D
:1011D000A0FB01018809022101EB40000190019868
:1011E00058B1019801380190019800284FF0000093
:1011F000F7D12BE74AF0807103E0002026E74AF49C
:101200008001484605F084F800201FE70000000038
:10121000704700000000000042F200010068C4F2C4
:101220000201884218BF704747F6F850C2F20040EA
:101230000178013101707047704700000000000024
:10124000F0B581B0044600284FF00000009019D09E
:10125000606D30B9204600F00BF90020A06584F8DD
:101260005000206804F0C4FF10B1206804F094FF1F
:10127000206804F0C9FF38B1206804F0C5FFE0B170
:10128000002523E00125E3E0206804F099FF40F207
:10129000500042F66351C2F20040C0F23E51006875
:1012A0008009A0FB0101012000EB91100090009843
:1012B0000028E1D000980138F8E7606D012540F082
:1012C00010006065A06D40F00100A065206804F08A
:1012D0009FFF616D01F010010843606D03D040F085
:1012E00010000125B3E020F48170023060652068B1
:1012F00004F082FF58BB206842F2001140F4807075
:10130000C4F2020142F200068842C4F2020640F032
:10131000A280304604F070FF074606F5807004F0A6
:101320006BFF384398B906F5807006F54072216866
:1013300046F20003C5F602038142104618BF03F5CA
:101340004070B142616808BF104604F0D9FF01F057
:101350002FFE41F2040188420CD3A068102809D165
:10136000607D216B227F41EA403040EA024040F03C
:101370001C0108E0607D216B227F41EA4030A168BA
:10138000084340EA0241207F012806D1206A00225A
:10139000CFF6FE7202EB40400143606A28B100F4D0
:1013A0007870A26A084340EA020120684CF2030305
:1013B000CFF6F073C2681A401143C16004F028FFF1
:1013C0000646206804F010FF304331D1217D2068AB
:1013D000E26A44F20307C36842EA813123EA070262
:1013E0001143C16094F838100129016914D14FF6F6
:1013F0001E020027CFF60042CFF6FF771140D4E956
:101400000F231943636C07EB02421143A26C19438B
:10141000114341F0010101E021F001010161016985
:10142000626B21F07041114301612046FFF71CF807
:101430002068E1680129026B22F00F0102D1A26944
:10144000013A114301630121606D61F301006065A0
:10145000284601B0F0BD46F20000C5F6020004F0D7
:10146000CBFE00287FF473AF5DE7000000000000B2
:10147000F0B5B7B0044602A8C0210025CDE9355526
:10148000CDE933553295C026FEF77AFF42F20001CE
:101490002068C4F20201884201D037B0F0BD4FF499
:1014A00000200290022004900C210395CDE9051044
:1014B000CDE9070020200996CDE90A0502A82B9561
:1014C00002F00EFA08B1FFF717FC44F2D8400326E9
:1014D000C5F602000027016841F0200101600168A3
:1014E00001F0200101910199816841F001018160C1
:1014F000806832A900F001000190019840203290EC
:101500000020C5F602003396349701F079FC4BF2C7
:1015100030151020C2F20045C4F2020005F124018A
:1015200028600920C5E901074FF48060EF60C5E934
:1015300004074FF48040A8614FF480702F63C5E921
:1015400007070420C1C1284600F066FE08B1FFF776
:10155000D3FBE564AC6337B0F0BD000000000000D1
:101560002DE9F04742F200060446C4F20206036881
:1015700046F2003006F5807706F54075C5F60200A4
:10158000BB42904608BF2846B342894608BF28465A
:1015900004F026FE8246206804F03AFE18B994F85A
:1015A0005000012802D10220BDE8F087BAF1090FEE
:1015B0004FF0010084F8500058D800FA0AF040F2C9
:1015C0002121084252D02046FFF726F830B10546C7
:1015D000002084F850002846BDE8F0872068616D3F
:1015E00040F60172B84221EA020118BF0646BAF17C
:1015F000000F01F58071616518BF864203D1616DEE
:1016000021F480116165616D40F20967C9044FF0F2
:10161000000144BFA16D21F00601C0F600070022C1
:10162000A16540F28151E36CC0F60001C3E90F17D8
:1016300040F2E957E16AC0F60007DF641C2303604B
:1016400084F85020426842F01002426004F0F0FD3D
:101650002168E06C40314A46434601F08DF9054669
:10166000206804F005FE2846BDE8F087002084F8D5
:1016700050000120BDE8F0872DE9F04381B0002142
:10168000009140F250010446C2F2004140F26F491D
:10169000A56DC4F20209086848F2B511C1F64E31D1
:1016A0002668A0FB01084E452F682A6815DC9F209C
:1016B000C4F2020086422BDC5720C4F202008642AC
:1016C0004FDC1020C4F20200864278D02820C4F2F9
:1016D0000200864273D040206CE045F22F40C5F6F0
:1016E0000200864227DC40F2B740C4F20200864284
:1016F00043DC40F27040C4F2020086425FD040F208
:101700008840C4F20200864259D040F2A04051E025
:1017100040F22740C4F2020086423DDCA020C4F221
:10172000020086424BD0B820C4F20200864246D066
:1017300040F210403EE045F26B40C5F602008642A2
:1017400074DC45F23040C5F60200864200F081802C
:1017500045F24440C5F6020086427AD045F2584030
:1017600072E05820C4F20200864228D07020C4F2F1
:101770000200864223D088201CE040F2B840C4F228
:10178000020086421BD045F20840C5F602008642A0
:101790005FD045F21C4057E040F22840C4F20200FE
:1017A00086420CD040F24040C4F20200864206D08D
:1017B00040F25840C4F20200864240F0ED84E06DF1
:1017C00000F01F01082000FA01F23A4200F01481F3
:1017D00040F20F40C4F20200864213DC6F20C4F2D4
:1017E0000200864200F38E803F20C4F2020086424F
:1017F00000F3CF801020C4F20200864200F0ED809A
:101800002820E5E04E4500F3898040F23F40C4F2D5
:101810000200864200F3C48040F21040C4F202008D
:10182000864200F0DA8040F22840D1E045F26C4078
:10183000C5F6020086420CD045F28040C5F6020093
:10184000864206D045F29440C5F60200864240F03A
:10185000A3842068E16D01F01F010368580727D5B4
:101860000420884010EA020722D01904686000F1C1
:101870008780980600F18C8440F20F40C4F2020089
:10188000864200F3AB836F20C4F20200864200F36D
:10189000E6833F20C4F20200864200F35084102009
:1018A000C4F20200864200F06D84282000F066BC7D
:1018B000980742D50220884010EA02073DD019045B
:1018C000686000F10E83980600F1988440F20F40A2
:1018D000C4F20200864200F3AF836F20C4F202001C
:1018E000864200F311843F20C4F20200864200F3D6
:1018F00056841020C4F20200864200F0738428202F
:1019000000F06CBC9F20C4F20200864251DC7020C3
:10191000C4F20200864260D0882059E040F29F4025
:10192000C4F2020086424BDC40F27040C4F2020076
:10193000864252D040F288404AE0180740F12C8499
:1019400008208840104000F0278440F20F40C4F285
:101950000200864200F32C836F20C4F2020086420C
:1019600000F34F833F20C4F20200864200F39383CA
:101970001020C4F20200864200F0B1832820A9E3BF
:10198000D80300F1B482A16C002940F00C8300F070
:1019900003BC4020C4F2020086421ED0582017E04B
:1019A00040F24040C4F20200864216D040F2584055
:1019B0000EE0A020C4F2020086420ED0B82007E05C
:1019C00040F2B840C4F20200864206D040F2A04085
:1019D000C4F20200864240F08E8220680423006830
:1019E000184209D02068036823F004030360AA604A
:1019F000606D40F001006065012000FA01F23A429A
:101A000070D040F20F40C4F20200864210DC6F201A
:101A1000C4F2020086421CDC3F20C4F2020086426F
:101A200032DC1020C4F20200864251D028204AE065
:101A30004E451ADC40F23F40C4F2020086422ADCE6
:101A400040F21040C4F20200864241D040F22840E9
:101A500039E09F20C4F20200864225DC7020C4F2E7
:101A60000200864234D088202DE040F29F40C4F22C
:101A7000020086421FDC40F27040C4F2020086423F
:101A800026D040F288401EE04020C4F20200864288
:101A90001ED0582017E040F24040C4F202008642B7
:101AA00016D040F258400EE0A020C4F20200864258
:101AB0000ED0B82007E040F2B840C4F202008642DF
:101AC00006D040F2A040C4F20200864240F01682E6
:101AD0002068406900F0800020B1AA60606D40F08D
:101AE00002006065042000FA01F23A4270D040F230
:101AF0000F40C4F20200864210DC6F20C4F20200E4
:101B000086421CDC3F20C4F20200864232DC1020F8
:101B1000C4F20200864251D028204AE04E451ADC29
:101B200040F23F40C4F2020086422ADC40F21040FC
:101B3000C4F20200864241D040F2284039E09F20A2
:101B4000C4F20200864225DC7020C4F20200864204
:101B500034D088202DE040F29F40C4F2020086423B
:101B60001FDC40F27040C4F20200864226D040F2F0
:101B700088401EE04020C4F2020086421ED0582059
:101B800017E040F24040C4F20200864216D040F214
:101B900058400EE0A020C4F2020086420ED0B820C9
:101BA00007E040F2B840C4F20200864206D040F29C
:101BB000A040C4F20200864240F0A681206800687E
:101BC00000F0020020B1AA60606D40F00400606582
:101BD000102000FA01F139427ED040F20F40C4F2E9
:101BE0000200864210DC6F20C4F2020086421CDC38
:101BF0003F20C4F20200864232DC1020C4F2020010
:101C0000864251D028204AE04E451ADC40F23F403F
:101C1000C4F2020086422ADC40F21040C4F2020004
:101C2000864241D040F2284039E09F20C4F20200B1
:101C3000864225DC7020C4F20200864234D088201F
:101C40002DE040F29F40C4F2020086421FDC40F2C9
:101C50007040C4F20200864226D040F288401EE066
:101C60004020C4F2020086421ED0582017E040F205
:101C70004040C4F20200864216D040F258400EE0C6
:101C8000A020C4F2020086420ED0B82007E040F245
:101C9000B840C4F20200864206D040F2A040C4F22E
:101CA0000200864240F036812668082230681042E1
:101CB00012D0A960206801684903016806D4C905EB
:101CC00006D4016821F00801016001E008034FD447
:101CD000216C09B120468847E06D202100F01F00EB
:101CE0008140394200F0AE8040F20F432268C4F2D6
:101CF00002039A4210DC6F23C4F202039A421CDCF6
:101D00003F23C4F202039A4236DC1023C4F20203DA
:101D10009A4255D028234EE04A451ADC40F23F4310
:101D2000C4F202039A422EDC40F21043C4F20203D2
:101D30009A4245D040F228433DE09F23C4F202037B
:101D40009A4229DC7023C4F202039A4238D08823D5
:101D500031E040F29F43C4F202039A4223DC40F296
:101D60007043C4F202039A422AD040F2884322E030
:101D7000A16C0029AED1AFE74023C4F202039A421E
:101D80001ED0582317E040F24043C4F202039A42A7
:101D900016D040F258430EE0A023C4F202039A4248
:101DA0000ED0B82307E040F2B843C4F202039A42CF
:101DB00006D040F2A043C4F202039A4240F0AC8045
:101DC0002268102312681A423CD0A96094F835208A
:101DD0002168042A0A681DD122F016020A604A69A5
:101DE00022F080024A61226C0AB9A26C1AB10A6818
:101DF00022F008020A603F2101FA00F0A8600120E9
:101E000084F83500216D0020002984F8340040F06A
:101E1000CA80C1E1500308680CD4C0050ED408681C
:101E200020F010000860012084F83500002084F8BC
:101E3000340003E0000301D4616C00E0E16B09B100
:101E400020468847606D002800F0A681606DC007BD
:101E500000F0A580042084F8350040F20F4120688E
:101E6000C4F20201884210DC6F21C4F202018842F0
:101E70001CDC3F21C4F2020188424FDC1021C4F275
:101E8000020188426FD0282167E048451ADC40F201
:101E90003F41C4F20201884247DC40F21041C4F2E3
:101EA000020188425FD040F2284156E09F21C4F2EF
:101EB0000201884242DC7021C4F20201884252D001
:101EC00088214AE040F29F41C4F2020188423CDC92
:101ED00040F27041C4F20201884244D040F288418D
:101EE0003BE0D80376D4616C00295CD154E1216CCD
:101EF000002958D150E10823304670E530680020B1
:101F000000287FF4EAADEDE53068002000287FF47A
:101F10005AAE5DE60422C9E6022353E74021C4F22B
:101F2000020188421FD0582117E040F24041C4F21C
:101F30000201884217D040F258410EE0A021C4F2BD
:101F4000020188420FD0B82107E040F2B841C4F244
:101F50000201884207D040F2A041C4F20201884247
:101F600008BF206800E020684FEA9821026822F04C
:101F700001020260009801300090884203D8206876
:101F80000068C007F6D120680068C0074FF0030062
:101F900008BF012084F83500002084F83400E16C8B
:101FA000002900F0F9802046884701B0BDE8F083A1
:101FB0004E4532DC40F23F40C4F20200864271DC02
:101FC00040F21040C4F20200864200F0888040F2E5
:101FD00028407FE0E16B0029E5D1DDE04E454BDC98
:101FE00040F23F40C4F20200864200F3AF8040F26C
:101FF0001040C4F20200864200F0C48040F2284043
:10200000BCE09F20C4F20200864254DC7020C4F27F
:102010000200864263D088205CE040F29F40C4F218
:10202000020086424EDC40F27040C4F2020086425A
:1020300055D040F288404DE04E4571DC40F23F40C3
:10204000C4F20200864200F3B18040F21040C4F2B4
:102050000200864200F0C68040F22840BEE09F2089
:10206000C4F2020086427ADC7020C4F2020086428A
:1020700000F08880882081E040F29F40C4F2020096
:10208000864273DC40F27040C4F20200864279D08E
:1020900040F2884072E04020C4F2020086421ED026
:1020A000582017E040F24040C4F20200864216D0A9
:1020B00040F258400EE0A020C4F2020086420ED04A
:1020C000B82007E040F2B840C4F20200864206D0D1
:1020D00040F2A040C4F20200864240F0948026689C
:1020E0006FF01C02306810403060012000FA01F1EE
:1020F0006960606584F835000020E16C84F8340084
:1021000000297FF450AF47E09F20C4F202008642CE
:1021100055DC7020C4F20200864263D088205DE066
:1021200040F29F40C4F2020086424FDC40F2704011
:10213000C4F20200864255D040F288404EE0402072
:10214000C4F2020086421DD0582017E040F2404001
:10215000C4F20200864215D040F258400EE0A020A2
:10216000C4F2020086420DD0B82007E040F2B84029
:10217000C4F20200864205D040F2A040C4F2020040
:10218000864243D126686FF008013068084030600D
:10219000216C00297FF407AF01B0BDE8F083402037
:1021A000C4F2020086421DD0582017E040F24040A1
:1021B000C4F20200864215D040F258400EE0A02042
:1021C000C4F2020086420DD0B82007E040F2B840C9
:1021D000C4F20200864205D040F2A040C4F20200E0
:1021E000864216D126686FF01401306808403060CE
:1021F000012084F83500002084F83400E16B0029C8
:102200007FF4D1AEC8E76FF00E026BE76FF0040108
:10221000BBE76FF00A01E8E72DE9F04381B004461F
:1022200000F0CEFE002C00F0738140F26F480546AE
:102230002068C4F20208404515DC9F21C4F2020167
:1022400088422BDC5721C4F20201884251DC102164
:10225000C4F2020188427AD02821C4F202018842E5
:1022600075D040216EE045F22F41C5F6020188424B
:1022700027DC40F2B741C4F20201884245DC40F25B
:102280007041C4F20201884261D040F28841C4F238
:10229000020188425BD040F2A04153E040F2274166
:1022A000C4F2020188423FDCA021C4F2020188424C
:1022B0004DD0B821C4F20201884248D040F210410A
:1022C00040E045F26B41C5F60201884200F3908080
:1022D00045F23041C5F60201884200F09C8045F28B
:1022E0004441C5F60201884200F0958045F258410C
:1022F0008CE05821C4F20201884228D07021C4F237
:102300000201884223D088211CE040F2B841C4F287
:10231000020188421BD045F20841C5F602018842FD
:1023200079D045F21C4171E040F22841C4F202012B
:1023300088420CD040F24041C4F20201884206D0EB
:1023400040F25841C4F20201884240F0118240F24A
:102350000F420221C4F2020284F8351090424FF07D
:10236000000184F8341012DC6F21C4F202018842AB
:1023700020DC3F21C4F20201884200F39180102149
:10238000C4F20201884200F0B0802821A7E0404555
:102390001EDC40F23F41C4F20201884200F3878014
:1023A00040F21041C4F20201884200F09E8040F2E7
:1023B000284194E09F21C4F20201884200F380800A
:1023C0007021C4F20201884200F08F80882186E0EB
:1023D00040F29F41C4F20201884278DC40F2704131
:1023E000C4F20201884200F0808040F2884176E029
:1023F00045F26C41C5F6020188420CD045F280419D
:10240000C5F60201884206D045F29441C5F60201A4
:10241000884240F0AD8104F1080E022084F83500B6
:1024200000209EE80640A1F1800384F83400B3FA4E
:1024300083F320685B094029D4E90579D4E9076C66
:1024400005684FEA83336FF3101508BF102345EA80
:10245000D2014AF6F8321943CAF2FD7241EADE01AE
:102460004CF6CD4341EAD701024441EAD901CCF60A
:10247000CC4341EAD601A2FB032341EA1C110160CF
:102480006FF0030000EA9300E0652046FEF730F9A4
:10249000E16D012201F01F0102FA01F141609BE0B0
:1024A0004021C4F2020188421FD0582117E040F2B7
:1024B0004041C4F20201884217D040F258410EE078
:1024C000A021C4F2020188420FD0B82107E040F2F7
:1024D000B841C4F20201884207D040F2A041C4F2E0
:1024E0000201884208BF206800E02068016821F0EE
:1024F0000101016027683868C0070DD000F060FD59
:10250000401B0628F6D320206065032084F83500A0
:10251000012001B0BDE8F08348F23F0104F1080555
:102520003868CFF6106108402ECD0843A1691043EA
:10253000E2691843236A0543606A2943042841EA93
:10254000020141EA030103D1D4E90B2311431943EA
:1025500041F20002C5F600421268B2F1005F17D3E3
:102560006268A2F12903202B06D23F25CCF2C035A8
:1025700025FA03F3DB0706D1A2F14F030022042B57
:1025800038BF012200E00122002A18BF41F4801167
:1025900039600428796921F0070141EA000510D16A
:1025A000D4E90A1045EA010558B12046FEF700FAC1
:1025B00038B140206065012084F8350001B0BDE8E5
:1025C000F08320467D61FEF793F8E16D3F2201F034
:1025D0001F0102FA01F181602068404519DC9F214A
:1025E000C4F20201884231DC5721C4F20201884260
:1025F00056DC1021C4F20201884200F091802821AB
:10260000C4F20201884200F08B804021C4F2020132
:1026100084E045F22F41C5F6020188422BDC40F2EE
:10262000B741C4F20201884248DC40F27041C4F272
:102630000201884274D040F28841C4F2020188420B
:102640006ED040F2A041C4F2020167E040F227419F
:10265000C4F20201884240DCA021C4F20201884297
:102660005ED0B821C4F20201884259D040F2104134
:10267000C4F2020152E045F26B41C5F60201884204
:102680003CDC45F23041C5F60201884248D045F2B3
:102690004441C5F60201884242D045F258413BE030
:1026A0005821C4F2020188423AD07021C4F20201DA
:1026B000884235D08821C4F202012FE040F2B841AF
:1026C000C4F2020188422BD045F20841C5F602014E
:1026D000884225D045F21C411EE040F22841C4F258
:1026E000020188421CD040F24041C4F202018842FB
:1026F00016D040F25841C4F202010FE045F26C419D
:10270000C5F6020188420BD045F29441C5F602019C
:10271000884205D045F28041C5F6020188421FD1AA
:102720002046FEF775F8A068802801D1002060607F
:1027300004F160036068C7B201380ECB07280F6050
:10274000536009D82046FEF7DBF804F16C02002341
:1027500007CA03604A6003E000206067C4E91B0009
:1027600000206065012184F8351001B0BDE8F083D8
:102770004020C9E6000000002DE9F041A8B304465E
:1027800090F83400012802D10220BDE8F081012038
:1027900084F8340094F83500012820D1022084F810
:1027A00035000020606540F20F472068C4F2020740
:1027B00040F26F486F26B842C4F20208C4F2020623
:1027C00016DCB04225DC3F25C4F20205A8423BDC02
:1027D0001025C4F20205A8425BD0282553E04FF42F
:1027E00000606065002084F834000120BDE8F081BD
:1027F00040451ADC40F23F45C4F20205A8422ADCFB
:1028000040F21045C4F20205A84242D040F22845E9
:1028100039E09F25C4F20205A84225DC7025C4F2E8
:102820000205A84235D088252DE040F29F45C4F22C
:102830000205A8421FDC40F27045C4F20205A8421E
:1028400027D040F288451EE04025C4F20205A84288
:102850001FD0582517E040F24045C4F20205A842B7
:1028600017D040F258450EE0A025C4F20205A84258
:102870000FD0B82507E040F2B845C4F20205A842DF
:1028800007D040F2A045C4F20205A84208BF206864
:1028900000E02068056825F0010505602046FEF788
:1028A000AFF82068B8420DDCB0421CDC3F21C4F216
:1028B0000201884232DC1021C4F20201884252D067
:1028C00028214AE040451ADC40F23F41C4F20201AF
:1028D00088422ADC40F21041C4F20201884242D010
:1028E00040F2284139E09F21C4F20201884225DCF0
:1028F0007021C4F20201884235D088212DE040F2D7
:102900009F41C4F2020188421FDC40F27041C4F2D0
:102910000201884227D040F288411EE04021C4F2E3
:10292000020188421FD0582117E040F24041C4F212
:102930000201884217D040F258410EE0A021C4F2B3
:10294000020188420FD0B82107E040F2B841C4F23A
:102950000201884207D040F2A041C4F2020188423D
:1029600008BF206800E02068016841F001010160B3
:102970000020BDE8F0810000F0B581B0A8B30446A6
:1029800090F83400012802D1022001B0F0BD0120EE
:1029900084F8340094F83500012820D1022084F80E
:1029A00035000020606540F20F462068C4F2020640
:1029B00040F26F47B042C4F2020719DC6F25C4F23F
:1029C0000205A84225DC3F25C4F20205A8423BDCF3
:1029D0001025C4F20205A8425BD0282553E04FF42D
:1029E00000606065002084F83400012001B0F0BD73
:1029F000B8421ADC40F23F45C4F20205A8422ADC84
:102A000040F21045C4F20205A84242D040F22845E7
:102A100039E09F25C4F20205A84225DC7025C4F2E6
:102A20000205A84235D088252DE040F29F45C4F22A
:102A30000205A8421FDC40F27045C4F20205A8421C
:102A400027D040F288451EE04025C4F20205A84286
:102A50001FD0582517E040F24045C4F20205A842B5
:102A600017D040F258450EE0A025C4F20205A84256
:102A70000FD0B82507E040F2B845C4F20205A842DD
:102A800007D040F2A045C4F20205A84208BF206862
:102A900000E02068056825F0010505602046FDF787
:102AA000AFFF2068B04210DC6F21C4F202018842FF
:102AB0001CDC3F21C4F20201884232DC1021C4F246
:102AC0000201884251D028214AE0B8421ADC40F283
:102AD0003F41C4F2020188422ADC40F21041C4F2B4
:102AE0000201884241D040F2284139E09F21C4F2DE
:102AF0000201884225DC7021C4F20201884234D0F0
:102B000088212DE040F29F41C4F2020188421FDC7F
:102B100040F27041C4F20201884226D040F288415E
:102B20001EE04021C4F2020188421ED0582117E065
:102B300040F24041C4F20201884216D040F25841AE
:102B40000EE0A021C4F2020188420ED0B82107E0B5
:102B500040F2B841C4F20201884206D040F2A041DE
:102B6000C4F20201884240F0298121680B25226CC1
:102B70000B6865F344030B601AB10A6842F008025F
:102B80000A60B84219DC9F21C4F20201884231DC9C
:102B90005721C4F20201884256DC1021C4F202011E
:102BA000884200F091802821C4F20201884200F09E
:102BB0008B804021C4F2020184E045F22F41C5F62A
:102BC000020188422BDC40F2B741C4F20201884284
:102BD00048DC40F27041C4F20201884274D040F2F5
:102BE0008841C4F2020188426ED040F2A041C4F292
:102BF000020167E040F22741C4F20201884240DC52
:102C0000A021C4F2020188425ED0B821C4F20201C0
:102C1000884259D040F21041C4F2020152E045F21C
:102C20006B41C5F6020188423CDC45F23041C5F6F5
:102C30000201884248D045F24441C5F6020188426B
:102C400042D045F258413BE05821C4F2020188428B
:102C50003AD07021C4F20201884235D08821C4F2F2
:102C600002012FE040F2B841C4F2020188422BD0A9
:102C700045F20841C5F60201884225D045F21C41C3
:102C80001EE040F22841C4F2020188421CD040F20A
:102C90004041C4F20201884216D040F25841C4F2C9
:102CA00002010FE045F26C41C5F6020188420BD0EB
:102CB00045F29441C5F60201884205D045F28041B3
:102CC000C5F60201884272D1216E0A68D20303D58B
:102CD0000A6842F480720A60E16E19B10A6842F42F
:102CE00080720A60B04210DC6F21C4F20201884297
:102CF0001CDC3F21C4F20201884232DC1021C4F204
:102D00000201884252D028214AE0B8421ADC40F23F
:102D10003F41C4F2020188422ADC40F21041C4F271
:102D20000201884242D040F2284139E09F21C4F29A
:102D30000201884225DC7021C4F20201884235D0AC
:102D400088212DE040F29F41C4F2020188421FDC3D
:102D500040F27041C4F20201884227D040F288411B
:102D60001EE04021C4F2020188421FD0582117E022
:102D700040F24041C4F20201884217D040F258416B
:102D80000EE0A021C4F2020188420FD0B82107E072
:102D900040F2B841C4F20201884207D040F2A0419B
:102DA000C4F20201884208BF206800E02068016880
:102DB00041F001010160002001B0F0BD216805254E
:102DC000226C0B68002A65F343030B603FF4D9AE15
:102DD0000A6842F00402D3E6B0B5044600F0F0F809
:102DE00040F278010546C2F20041621C097818BF22
:102DF0000C4400BF00F0E4F8401BA042FAD3B0BD81
:102E00002DE9F04F83B00C68002C00F0C68000F173
:102E1000264242F2004702F1FF72C5F602074FEA6E
:102E2000B22201920A22B84208BF092200250027D7
:102E30004FF0010A009209E00C68043734FA0AF2F4
:102E40000AF1010A05F1020500F0A780AAF10109C3
:102E5000012202FA09FE14EA0E08EDD0D1F804B0FE
:102E60000BF00304A4F1010CBCF1010F11D80322F3
:102E70008668AA40CB6826EA0202AB401A43826009
:102E8000CBF30013426822EA0E0203FA09F31A4355
:102E90004260032C1ED00323C268AB40022C22EAFE
:102EA00003028B6803FA05F342EA0302C26011D100
:102EB0006FF0030207F01C0602EA59020F230244D6
:102EC00003FA06F4D2F820C00B692CEA0404B340DC
:102ED0002343136203230268AB404E689A4306F013
:102EE0000303AB4016F4403F42EA03020260A3D062
:102EF00044F2F44340F2084EC5F60203C5F6000E54
:102F00001A6842F002021A601A6807F00C0302F015
:102F100002020292029A29F00302019C009E092CEF
:102F200038BF26460F2452F80EC09C402CEA0404F9
:102F300006FA03F34FF0B04C234342F80E30DCF8AE
:102F400000204B6842EA0806DC0258BF22EA080665
:102F50009C02CCF8006040F2040CC5F6000CDCF8D2
:102F6000002042EA080658BF22EA08069C03CCF873
:102F70000060DCF8802042EA080658BF22EA080612
:102F8000DB03CCF88060DCF87C2042EA080658BFFE
:102F900022EA0806CCF87C604EE703B0BDE8F08F6B
:102FA000002A08BF0904816170470000000000008A
:102FB00041F20000C5F600400068000C70470000B8
:102FC0004DF6CC30C2F200400068704700000000AF
:102FD00040F278004DF6CC31C2F20040C2F200411E
:102FE00000780A6810440860704700000000000084
:102FF00080B5032000F0D0F801F0E2FA44F2184165
:1030000049F2D853C5F60201C0F600030A68096800
:1030100001F00F01C2F30322595C9A5C01F01F0119
:1030200002F01F02D04040F25402C2F2004220FAE5
:1030300001F1116040F25001C2F2004108600F201E
:1030400000F00AF800281CBF012080BD00F080F8C5
:10305000002080BD00000000B0B540F27801C2F24F
:103060000041097801B3044640F25000C2F200402A
:103070004FF47A72B2FBF1F10068B0FBF1F002F0AC
:10308000E3F90F2C4FF001050CD858B94FF0FF3081
:1030900000222146002500F06FF840F27C00C2F2C9
:1030A000004004602846B0BD0120B0BD0000000013
:1030B00010B54EF6A05E4178CEF2000E90F800C03A
:1030C0004EF8081CDEF8001021F00101CEF80010C7
:1030D00041684EF8041C017BC37A827A447B1B064C
:1030E00043EA0171837B41EAC241C27B41EA8441E8
:1030F000447A41EA4341007A41EA024141EA04212B
:1031000041EA400040EA0C00CEF8000010BD00008B
:103110004EF62450CEF20000BFF35F8F016821F419
:10312000803101600021016770470000000000004D
:103130004EF6245140F00100CEF200010867086805
:1031400040F480300860BFF34F8FBFF36F8F70473C
:1031500081B044F2F440C5F60200016841F002017A
:103160000160006800F002000090009801B0704714
:1031700080B504F0C9FF80BD70B514460D46064603
:1031800004F0D2FF2946224603F07EFB014630467A
:1031900004F0D2FF70BD000080B504F0E1FF80BDF7
:1031A000B0B544F60C05C5F602052968490729683B
:1031B00005D401F00701081A18BF0120B0BD21F0A5
:1031C000070108432860FFF7FBFE044655F8080C8A
:1031D000800407D4FFF7F4FE001BB0F57A7FF5D921
:1031E0000120B0BD0020B0BD80B501F0ADF944F2C2
:1031F000204149F2D852C5F60201C0F60002096822
:10320000C1F30211515C01F01F01C84080BD0000F4
:1032100080B544F2304EC5F6020E5EF8083C5EF80A
:10322000081CC1F3051C5EF8041CBCF1000FDEF89D
:10323000042016D0C2F3CC0201F00101514303F087
:103240000303022B00EE101AB8EE400A0ED0012B39
:103250000FD01BB95EF8301C89060DD49FED341ACF
:1032600018E000218160C0E9001180BD9FED2F1A98
:1032700010E09FED2D1A0DE05EF8301C49F20002BF
:10328000C0F2D032C1F3C10122FA01F101EE101AED
:10329000B8EE411ADEF800109FED263A6FF35F2179
:1032A00002EE101ADEF80010C1F34621B8EE422AF1
:1032B00000EE032A00EE10CAB7EE003AB8EE400A5C
:1032C00081EE000A32EE031A02EE101AB8EE422A1C
:1032D00020EE010A32EE031A80EE011ABCEEC11A8A
:1032E00080ED001ADEF80010C1F3064101EE101A5D
:1032F000B8EE411A31EE031A80EE011ABCEEC11A83
:1033000080ED011ADEF80010C1F3066101EE101A1B
:10331000B8EE411A31EE031A80EE010ABCEEC00A83
:1033200010EE101A816080BD0024744A20BCBE4B90
:103330000024744C0000003980B544F2384EC5F6C4
:10334000020E5EF8103C5EF8101CC1F3053C5EF8FE
:103350000C1CBCF1000FDEF8042014D0C1F30011E6
:10336000C2F3CC02514300EE101A03F0030102290C
:10337000B8EE400A0CD071B95EF8381C89060DD43D
:103380009FED341A18E000218160C0E9001180BD72
:103390009FED2F1A10E09FED2D1A0DE05EF8381CFE
:1033A00049F20002C0F2D032C1F3C10122FA01F1A8
:1033B00001EE101AB8EE411ADEF800109FED263A21
:1033C0006FF35F2102EE101ADEF80010C1F3462100
:1033D000B8EE422A00EE032A00EE10CAB7EE003A19
:1033E000B8EE400A81EE000A32EE031A02EE101A1D
:1033F000B8EE422A20EE010A32EE031A80EE011ADC
:10340000BCEEC11A80ED001ADEF80010C1F30641CF
:1034100001EE101AB8EE411A31EE031A80EE011ACD
:10342000BCEEC11A80ED011ADEF80010C1F306618E
:1034300001EE101AB8EE411A31EE031A80EE010ABD
:10344000BCEEC00A10EE101A816080BD0024744AE0
:1034500020BCBE4B0024744C00000039000000006A
:1034600080B544F2404EC5F6020E5EF8183C5EF898
:10347000181CC1F3055C5EF8141CBCF1000FDEF8EB
:10348000042014D0C1F30021C2F3CC02514300EE5A
:10349000101A03F003010229B8EE400A0CD071B9EA
:1034A0005EF8401C89060DD49FED341A18E0002107
:1034B0008160C0E9001180BD9FED2F1A10E09FEDE3
:1034C0002D1A0DE05EF8401C49F20002C0F2D03225
:1034D000C1F3C10122FA01F101EE101AB8EE411A4E
:1034E000DEF800109FED263A6FF35F2102EE101A0E
:1034F000DEF80010C1F34621B8EE422A00EE032A9E
:1035000000EE10CAB7EE003AB8EE400A81EE000AAB
:1035100032EE031A02EE101AB8EE422A20EE010A29
:1035200032EE031A80EE011ABCEEC11A80ED001AC9
:10353000DEF80010C1F3064101EE101AB8EE411A90
:1035400031EE031A80EE011ABCEEC11A80ED011AA9
:10355000DEF80010C1F3066101EE101AB8EE411A50
:1035600031EE031A80EE010ABCEEC00A10EE101A0A
:10357000816080BD0024744A20BCBE4B0024744C82
:10358000000000390000000080B584B0024641F61A
:10359000FF7300209B1A70EB010329DB40F2FF331D
:1035A0009B1A70EB01034FDA82F480630B4300F047
:1035B000AD8082F400630B4300F0BB8082F4805244
:1035C000114340F07A8144F20041C5F60201086DD2
:1035D000C0F30232042A00F25D8148F20000C0F21A
:1035E000BB00DFE812F0B900E000E7006A01F0007C
:1035F00047F6FF739B1A70EB010343DA82F4004332
:103600000B4300F0AD8082F480330B4300F0C080A8
:1036100082F40022114340F0508144F20040C5F68C
:103620000200816D01F44031B1F5003F00F01A81D4
:10363000B1F5803F00F02281002940F02B81006825
:10364000000140F12781B1E082F480730B4335D053
:1036500082F40072114340F0308144F20041C5F61B
:103660000201086DC0F38212042A00F2138148F2AD
:103670000000C0F2BB00DFE812F06F0096009D0072
:103680002001A60082F400530B432CD082F4804228
:10369000114340F0128144F20040C5F60200816DF2
:1036A000C1F30271052900F2F580DFE801F003ACF7
:1036B000B3BAC86AFFF798FD04B080BD44F2004178
:1036C000C5F60201086D00F00702042A00F2E2804C
:1036D00048F20000C0F2BB00DFE812F03E006500D7
:1036E0006C00EF00750044F20040C5F60200016D69
:1036F000C1F30241052900F2CD80DFE801F0038427
:103700008B92A04200F048FF04B080BD44F200411B
:10371000C5F60201886DC0F34252042A00F2BA8055
:1037200048F20000C0F2BB00DFE802F0163D44C7DB
:103730004D0044F20041C5F60201886DC0F30262FB
:10374000042A00F2A78048F20000C0F2BB00DFE8C4
:1037500002F0032A31B43A00086880017CD499E071
:1037600044F20040C5F60200016D01F04051B1F194
:10377000005F00F08C80B1F1805F6AD0002940F0DA
:103780008980006847F640018003C0F27D115CE04B
:1037900044F20040C5F60200C16C0068C9032CD495
:1037A000800177D558E00868000173D501A8FFF7BC
:1037B000C3FD05E0086880006CD501A8FFF750FE46
:1037C000019804B080BDC86C0B6810F040520868C6
:1037D00002D113F0040328D1B2F1805F02D110F4BA
:1037E000807060D1086810F400301CBF47F64000BC
:1037F000C0F27D10B2F1005F6BE000014AD501A874
:10380000FFF79AFD40E00068000143D501A8FFF7EB
:1038100093FD24E0006880003CD501A8FFF720FE5E
:103820001DE00168490735D50068C0F3C10049F2C1
:103830000001C0F2D03121FA00F004B080BD006870
:1038400040F60011C005C0F23D0101EAE07004B08D
:1038500080BD006880011DD501A8FFF7D9FC029842
:1038600004B080BDC16C036811F04051026814D1EE
:1038700013F0040311D0C2F3C100D8E70068800040
:1038800008D501A8FFF7ECFD039804B080BD0068DF
:1038900000010ED4002004B080BDB1F1805F0ED1D4
:1038A00012F480720BD040F60010C0F23D0004B05C
:1038B00080BD01A8FFF740FD029804B080BD0068FC
:1038C00010F400301CBF47F64000C0F27D10B1F18B
:1038D000005F18BF002004B080BD000000000000A1
:1038E0002DE9F04381B00446C07844F22C4900072A
:1038F000C5F6020901D400252EE0A06E4FEA305033
:1039000003280DD80025DFE800F0020E1714D9F8BF
:103910000000002540F40030C9F8000055B913E05C
:1039200001253DB910E004F10800022102F0C8FFB2
:1039300005464DB1A84611E004F12800022103F02C
:103940004FF80546002DF5D1D9F82400A16E20F4DA
:1039500040100843C9F824004FF000086078C00701
:1039600030D0A06D042807D8DFE800F00A131C034C
:103970000300FDB1A84625E00125002DFAD119E08C
:10398000D9F8000040F40030C9F80000002DF1D152
:1039900010E004F10800002102F092FF0546002D1E
:1039A000E8D107E004F12800002103F019F80546EA
:1039B000002DDFD1D9F82400A16D20F007000843C5
:1039C000C9F824006078800732D5E06D4FEAB01066
:1039D000042807D8DFE800F00A131C030300FDB138
:1039E000A84625E00125002DFAD119E0D9F80000FC
:1039F00040F40030C9F80000002DF1D110E004F1CE
:103A00000800002102F05CFF0546002DE8D107E028
:103A100004F12800002102F0E3FF0546002DDFD16C
:103A2000D9F82400E16D20F4E0700843C9F82400BF
:103A30006078400734D5D4F8A8004FEA70500428C5
:103A400007D8DFE800F00A131C030300FDB1A84605
:103A500026E00125002DFAD119E0D9F8000040F444
:103A60000030C9F80000002DF1D110E004F1080089
:103A7000002102F025FF0546002DE8D107E004F102
:103A80002800002102F0ACFF0546002DDFD1D9F857
:103A90002C00D4F8A81020F460000843C9F82C00CA
:103AA0006078000734D5D4F8AC004FEA30600428C1
:103AB00007D8DFE800F00A131C030300FDB1A84695
:103AC00026E00125002DFAD119E0D9F8000040F4D4
:103AD0000030C9F80000002DF1D110E004F1080019
:103AE000002102F0EDFE0546002DE8D107E004F1CB
:103AF0002800002102F074FF0546002DDFD1D9F81F
:103B00002C00D4F8AC1020F0E0600843C9F82C0079
:103B1000E078800728D5E06C4FEA3010032806D8FB
:103B2000DFE800F002091202B5B1A8461CE0012549
:103B3000002DFAD110E0D9F8000040F40030C9F8A7
:103B40000000002DF1D107E004F10800022102F08D
:103B5000B7FE0546002DE8D1D9F82000E16C20F031
:103B600030000843C9F820006078C00632D5206EC6
:103B70004FEA3030042807D8DFE800F00A131C03AE
:103B80000300FDB1A84625E00125002DFAD119E07A
:103B9000D9F8000040F40030C9F80000002DF1D140
:103BA00010E004F10800002102F08AFE0546002D15
:103BB000E8D107E004F12800002102F011FF0546DA
:103BC000002DDFD1D9F82400216E20F4E040084315
:103BD000C9F824006078800626D5606E4FEA304030
:103BE000052807D8DFE800F0030A100303039DB19E
:103BF000A84619E00125002DFAD10DE004F10800D6
:103C0000012102F05DFE04E004F12800012102F030
:103C1000E7FE0546002DEBD1D9F82400616E20F4B3
:103C2000E0200843C9F824006078400628D5D4F87D
:103C3000B0004FEA3070052807D8DFE800F0030A2B
:103C4000100303039DB1A8461AE00125002DFAD107
:103C50000DE004F10800012102F032FE04E004F15D
:103C60002800012102F0BCFE0546002DEBD1D9F859
:103C70002C00D4F8B01020F0E0400843C9F82C0024
:103C80006078000620D5206FD8B1B0F1005F12D067
:103C9000B0F1805F25D1D9F8000040F40030C9F8B8
:103CA000000085B9D9F82400216F20F04050084366
:103CB000C9F8240008E004F10800012102F000FE28
:103CC0000546002DEED0A846E078C0072AD0A06CAB
:103CD00003280AD8DFE800F0020D1602D5B1A84685
:103CE00020E00125002DEED1DCE70125002DF6D1E5
:103CF00010E0D9F8000040F40030C9F80000002DB1
:103D0000EDD107E004F10800022102F0D9FD0546DB
:103D1000002DE4D1D9F82000A16C20F00300084365
:103D2000C9F82000A078400642D5D9F8D40340F461
:103D30008070C9F8D403FFF743F90646D9F8D403D5
:103D4000C00505D4FFF73CF9801B6528F6D3032591
:103D50006DBBD9F84410D4F8B400414011F4407F51
:103D600011D0D9F84410D9F8442042F48032C9F86F
:103D70004420D9F8442021F4407122F48032C9F85B
:103D80004420C9F84410B0F5807F0FD1FFF718F92F
:103D9000064641F2893700BFD9F84400800705D4B0
:103DA000FFF70EF9801BB842F6D3032585B1A8466C
:103DB0002078C00742D0E06F4FEAF000052823D8F2
:103DC000DFE800F003262C0303037DB3A84635E0AB
:103DD0004FF6CF73D4F8B40059F81C2CC0F2FF038F
:103DE00000F4407122F47C5203EA1013B1F5407FD5
:103DF00008BF1A436FF31F3049F81C2CD9F8441040
:103E00000843C9F84400D3E70125002DDED10DE0B9
:103E100004F10800012102F053FD04E004F1280040
:103E2000012102F0DDFD0546002DCFD1D9F8280093
:103E3000E16F20F038000843C9F828002078800797
:103E400024D5A06F052807D8DFE800F0030A100387
:103E500003039DB1A84619E00125002DFAD10DE01C
:103E600004F10800012102F02BFD04E004F1280018
:103E7000012102F0B5FD0546002DEBD1D9F828004F
:103E8000A16F20F007000843C9F8280020784007F8
:103E900026D5D4F89400052807D8DFE800F0030AF7
:103EA000100303039DB1A8461AE00125002DFAD1A5
:103EB0000DE004F10800012102F002FD04E004F12C
:103EC0002800012102F08CFD0546002DEBD1D9F828
:103ED0002C00D4F8941020F007000843C9F82C00F7
:103EE0002078800628D5D4F890004FEA3070052855
:103EF00007D8DFE800F0030A100303039DB1A846CA
:103F00001AE00125002DFAD10DE004F1080000218E
:103F100002F0D6FC04E004F12800022102F060FD6A
:103F20000546002DEBD1D9F82800D4F8901020F0E8
:103F3000E0400843C9F828002078400628D5D4F886
:103F40009C004FEAB020052807D8DFE800F0030AFC
:103F5000100303039DB1A8461AE00125002DFAD1F4
:103F60000DE004F10800002102F0AAFC04E004F1D5
:103F70002800022102F034FD0546002DEBD1D9F8CE
:103F80002C00D4F89C1020F4E0500843C9F82C0011
:103F90002078000628D5D4F8A0004FEA7030052814
:103FA00007D8DFE800F0030A100303039DB1A84619
:103FB0001AE00125002DFAD10DE004F108000021DE
:103FC00002F07EFC04E004F12800022102F008FD6A
:103FD0000546002DEBD1D9F82C00D4F8A01020F420
:103FE00060400843C9F82C002078000716D5D4F8A3
:103FF0008400B0F5805F08D104F12800022102F0AE
:10400000EFFC002818BF4FF00108D9F82800D4F8B9
:10401000841020F440500843C9F828002078C006D6
:1040200016D5D4F89800B0F5807F08D104F12800A7
:10403000022102F0D5FC002818BF4FF00108D9F882
:104040002C00D4F8981020F440700843C9F82C00D4
:10405000A078000722D5D4F8A400B0F5003F1AD00C
:10406000B0F5803F11D0C8BB04F10800002102F078
:1040700027FC05468DB9D9F82C00D4F8A41020F4FB
:1040800040300843C9F82C0008E004F12800022160
:1040900002F0A6FC0546002DEDD0A846A07840070A
:1040A00029D5D4F88800B0F5401F21D0B0F5001F05
:1040B00018D0B0F5801F40F0BF80D9F8000040F460
:1040C0000030C9F80000ADB9D9F82800D4F888103C
:1040D00020F440100843C9F828000CE00125002D09
:1040E000DBD1C8E704F12800012102F079FC054684
:1040F000002DE9D0A846A078C00720D0206DB0F5EB
:10410000803F10D0B8B9D9F8000040F40030C9F8A9
:1041100000009DB9D9F82000216D20F480300843BB
:10412000C9F820000BE004F10800022102F0C8FBEE
:1041300005461DB9EEE70125002DEBD0A846E07835
:10414000800608D504F12800022102F049FC00286D
:1041500018BF4FF00108D4E900108A037BD5D4F8CA
:1041600080206FF0010303EB3223022B0AD34FEAC6
:1041700032233BB1012B64D1D9F8003043F4003332
:10418000C9F80030002D5FD0CA0267D4CA006FD4CE
:104190008A0279D44A0000F18280B1F1FF3F40F3F6
:1041A0008F80090200F19780C00707D004F1080052
:1041B000002102F085FB002818BF05462079800702
:1041C00007D504F10800012102F07AFB002818BF8E
:1041D00005462079400707D504F10800022102F0C6
:1041E0006FFB002818BF05462079000707D504F1AA
:1041F0002800002102F0F4FB002818BF05462079B2
:10420000C00607D504F12800012102F0E9FB0028CF
:1042100018BF05462079800607D504F12800022141
:1042200002F0DEFB002818BF0125002D18BF012574
:10423000284601B0BDE8F0830125002D7FF45AAF78
:1042400042E70125002D9FD1D9F8283023F440738F
:104250001A43C9F828204546CA0297D5D9F8242020
:10426000636F22F000421A43C9F82420CA008FD598
:1042700059F81C2CD4F8B83022F480421A4349F87B
:104280001C2C8A027FF586AFD9F82420E36E22F039
:1042900080721A43C9F824204A007FF57EAF59F88E
:1042A0001C2C22F4004249F81C2CD4F8BC2059F8EC
:1042B0001C3C1A4349F81C2CB1F1FF3F3FF771AF8A
:1042C000D9F82020636D22F040521A43C9F820200B
:1042D00009027FF569AFD9F82810D4F88C2021F4B1
:1042E00040011143C9F82810C0077FF45FAF65E7AC
:1042F0002DE9F04381B0002800F0F48042F200087C
:104300000446C5F200288946D8F8000000F00F00E6
:1043100088420ED2D8F8000020F00F0040EA0900D1
:10432000C8F80000D8F8000000F00F00484540F041
:10433000D980206844F218474107C5F602070AD51C
:1043400021693A6802F07002914204D93A6822F079
:1043500070021143396001070AD561697A6802F079
:104360007002914204D97A6822F070021143796098
:10437000C1060AD5A1697A6802F4E062914204D9C3
:104380007A6822F4E0621143796081060AD5E16916
:10439000BA6802F07002914204D9BA6822F0700241
:1043A0001143B96081070AD5E1683A6802F00F024B
:1043B000914204D93A6822F00F0211433960C007D4
:1043C0007ED1206881070AD5E1683A6802F00F02C1
:1043D000914204D23A6822F00F0211433960D8F8B2
:1043E000001001F00F0149450DD9D8F8001021F057
:1043F0000F0141EA0901C8F80010D8F8001001F0D7
:104400000F0149456ED141070AD521693A6802F08A
:104410007002914204D23A6822F07002114339606E
:1044200001070AD561697A6802F07002914204D2EC
:104430007A6822F0700211437960C1060AD5A16939
:104440007A6802F4E062914204D27A6822F4E0626F
:104450001143796080060AD5E069B96801F07001FE
:10446000884204D2B96821F070010843B86000F0B6
:10447000A7F8396849F2D852C0F600023B68C1F388
:10448000032103F00F03515CD25C01F01F01C8400F
:1044900002F01F0140F2540220FA01F1C2F2004280
:1044A000116040F2500140F27C02C2F20041C2F2BF
:1044B000004208601068FEF7CFFD01B0BDE8F08350
:1044C000386820F47061D4E90102012841EA020150
:1044D00039600BD003282BD002282ED157F8181C96
:1044E000890307D4012001B0BDE8F08357F8181CF8
:1044F000C905F7D557F8081C21F00701084347F80C
:10450000080CFEF75DFD064641F2883557F8080CA9
:10451000616800F03800B0EBC10F3FF452AFFEF716
:104520004FFD801BA842F1D9032001B0BDE8F08304
:1045300057F8181C8901D5D5DCE757F8181C49072E
:10454000D0D5D7E70000000080B500F039F844F27C
:10455000184149F2D853C5F60201C0F600030A68B3
:10456000096801F00F01C2F30322595C9A5C02F062
:104570001F0220FA02F201F01F0040F2540122FA59
:1045800000F0C2F20041086040F25001C2F2004166
:104590000A6080BD0000000080B5FFF7D5FF44F23F
:1045A0001C4149F2D852C5F60201C0F60002096862
:1045B000C1F30211515C01F01F01C84080BD000031
:1045C00044F20041C5F602010869C0F3C2000328A5
:1045D0000FD002282AD070BB0868800649F200007C
:1045E000C0F2D03058BF70470968C1F3C101C8405C
:1045F00070478A6A886AC0F3051CC86ABCF1000F5C
:104600004B6B1DD0C3F3CC0300F00100584302F004
:104610000302022A00EE100AB8EE400A12D0A2B934
:104620000868800614D49FED261A1EE047F6400065
:10463000C0F27D10704740F60010C0F23D00704798
:10464000002070479FED1D1A0FE09FED1B1A0CE034
:10465000086849F20002C0F2D032C0F3C10022FA69
:1046600000F001EE100AB8EE411A086B9FED153A02
:104670006FF35F2002EE100A086BC0F34620B8EE1D
:10468000422A013000EE032A00EE10CAB7EE003ACB
:10469000B8EE400A81EE000A32EE031A20EE010A5B
:1046A00001EE100AB8EE411A80EE010ABCEEC00A13
:1046B00010EE100A704700BF0024744A20BCBE4BA5
:1046C0000024744C000000392DE9F04381B0F8B1AA
:1046D0008046007844F20049C007C5F602095AD066
:1046E000D9F8100000F03801D9F82800102905D0B9
:1046F00018290FD100F0030002280BD1D9F80000CF
:10470000800344D5D8F80400002840D101272FE0C9
:10471000012718E3D8F804402CB1B4F5A02F0DD030
:10472000B4F5803F10D0D9F8000020F48030C9F8EB
:104730000000D9F8000020F4802009E0D9F800003A
:1047400040F48020C9F80000D9F8000040F480301F
:10475000C9F80000FEF734FC0546A4B1D9F8000002
:10476000800314D4FEF72CFC401B6428F6D90327E1
:104770000020002800F0E7820DE000BFFEF720FCDB
:10478000401B6428F3D8D9F800008003F6D4012038
:10479000002800F0D88298F80000800740F184805B
:1047A000D9F8100010F03801D9F828001CD01829C9
:1047B00008BF5FEA807017D0D8F80C00D9F8001055
:1047C000002847D021F019010843C9F80000FEF77E
:1047D000F7FB0546D9F8000040072AD4FEF7F0FBA6
:1047E000401B0228F6D91EE0D9F80000400704D586
:1047F000D8F80C00002800F09681D9F80000D8F80D
:104800000C1020F019000843C9F80000FEF7D8FB8F
:10481000054600BFD9F8000040070AD4FEF7D0FBD8
:10482000401B0228F6D903270024002C00F08B82BD
:104830003AE0FEF7BDFB41F20301884223D8D8F8E5
:104840001000D9F80410402821F47C3124D141F41F
:10485000003023E021F00100C9F80000FEF7B0FBB2
:1048600005460126D9F8000010F0040086EA9004FD
:1048700017D0FEF7A5FB401B0328F3D30327002C1A
:1048800000F0618210E0D9F80400D8F8101020F090
:10489000FE4040EA016001E041EA0030C9F804004E
:1048A0000124002C00F04F8298F80000C00674D557
:1048B000D9F8100000F03801D9F82800082905D0EF
:1048C00018291CD100F00300012818D1D9F80000E4
:1048D000C00503D5D8F81C00802859D1FEF768FB25
:1048E00041F20301884222D8D8F82000D9F80410F8
:1048F000202821F0F84142D141F0804041E0D8F831
:104900001C000028D9F8000020D040F08000C9F831
:104910000000FEF755FB0546D9F80000C005DDD4C0
:10492000FEF74EFB401B0228F6D9032731E0D9F8E9
:104930000C00D8F8201020F07C50012440EA0160DF
:10494000C9F80C00002C00F0FE8126E020F0800069
:10495000C9F80000FEF734FB05460126D9F800002F
:1049600010F4807086EA10240ED0FEF729FB401B5D
:104970000328F3D30327002C00F0E5810DE041EA82
:104980008060C9F804000124002C00F0DC8104E000
:1049900001270024002C00F0D68198F800000007C1
:1049A0001CD498F80000800631D498F80000400725
:1049B00045D4D8F82440002C00F09180D9F810009C
:1049C00000F03800182840F08C80012CD9F828100D
:1049D000D9F8300040F0A9800127B4E1D8F81400DC
:1049E0000028D9F874003ED040F00100C9F87400E6
:1049F000FEF7E6FA054600BFD9F874008007D0D468
:104A0000FEF7DEFA401B0228F6D903279BE1D8F80F
:104A100018000028D9F800004DD040F48050C9F8A3
:104A20000000FEF7CDFA0546D9F800008004BCD49A
:104A3000FEF7C6FA401B0228F6D9032783E1D9F80E
:104A4000000440F48070C9F80004FEF7B9FA054686
:104A5000D9F80004C0051AD4FEF7B2FA401B642846
:104A6000F6D903276FE120F00100C9F87400FEF7C2
:104A7000A7FA0546032700BFD9F8740080077FF521
:104A800090AFFEF79DFA401B0228F5D95BE1D8F8FC
:104A900008402CB1052C00F08280012C00F08580AC
:104AA000D9F8700020F00100C9F87000D9F8700042
:104AB00020F004007DE020F48050C9F80000FEF7EB
:104AC0007FFA0546032700BFD9F8000080047FF570
:104AD0006CAFFEF775FA401B0228F5D933E10027C9
:104AE00031E1D9F8000020F08070C9F80000FEF72D
:104AF00067FA022C05464FF0030709D1D9F80000E8
:104B0000800178D5FEF75CFA401B0228F6D91AE13D
:104B1000D9F80000800140F1E780FEF751FA401B10
:104B20000228F5D90FE101277EE601F00302D8F84B
:104B300028309A4240F0DA80C1F30511D8F82C20D1
:104B4000914240F0D7800146D8F830206FF35F21C2
:104B5000013A914240F0D080C0F34622D8F8341098
:104B600001398A4240F0CA80C0F30642D8F83810B2
:104B700001398A4240F0C480C0F30660D8F83C1086
:104B80000139884240F0BE80D9F83400D8F8481086
:104B9000C0F3CC00814240F0B7800027D3E0D9F8C1
:104BA000700040F00400C9F87000D9F8700040F0BF
:104BB0000100C9F87000FEF703FA002C054641F227
:104BC00088344FF0030711D0D9F8700080073FF503
:104BD000F0AEFEF7F5F9401BA042F5D9B3E000BFF7
:104BE000FEF7EEF9401BA04200F2AD80D9F870004C
:104BF0008007F5D4DDE608F12807D9F8280040F24F
:104C0000F33188438ECF0843591E40EA02104FF417
:104C10007E426FF35F21C9F8280002EB47204FF472
:104C2000FE0280B2D8F83C300844D8F8381002EBC5
:104C300001414FF0FE4201F4FE0102EB0362084421
:104C400002F0FE410844C9F83000D9F82C004FF6B4
:104C5000F87120F00100C9F82C00D9F83400D8F818
:104C60004820884340EAC200C9F83400D9F82C0033
:104C7000D8F8401020F00C000843C9F82C00D9F8EF
:104C80002C00D8F8441020F002000843C9F82C008A
:104C9000D9F82C0040F48030C9F82C00D9F82C0049
:104CA00040F40030C9F82C00D9F82C0040F48020E2
:104CB000C9F82C00D9F82C0040F00100C9F82C00EC
:104CC000D9F8000040F08070C9F80000FEF778F9CC
:104CD00004460327D9F80000800109D4FEF770F9D3
:104CE000001B0228F6D92EE000272CE001272AE03D
:104CF000002728E0012726E0012724E0012722E001
:104D0000012720E001271EE0D9F82C0020F0010047
:104D1000C9F82C00FEF754F90546FEF751F9A842F0
:104D2000FBD0D9F834004FF6F871D8F84820884302
:104D3000002740EAC200C9F83400D9F82C0040F03E
:104D40000100C9F82C00F8B201B0BDE8F083000002
:104D50002DE9F041002800F0BC80044643F600062F
:104D6000C4F2000643F20007256843F60048B54246
:104D7000C4F20107C4F200084FF00000A06204D0A2
:104D8000454518BFBD4240F0A080204601F014FF09
:104D9000B54218BFBD4240F08B80102800F29980C8
:104DA00094F8810028B9002084F88000204600F0A3
:104DB00093F8022084F881002068D4F818E0026893
:104DC000BEF1806F22F00102026087680FD1626835
:104DD0002AB1B2F5800F0AD1A36B23B13AB9A26B05
:104DE000B2F1805F03D1026842F4805202606368CE
:104DF00007F4F81713F4800C08D0E668072E05D3E3
:104E00000668256D26F480762E4302E0066826F4B7
:104E100080760660E669A56A47EA0607E66B47EA18
:104E2000050747EA0607D4E90285D4E9042145EAE3
:104E300007058560656B43EA0E07666A47EA050762
:104E4000A56B47EA060747EA050742EA0702276A11
:104E500041EA0201E26C41EA0701A76C41EA020162
:104E6000A26D41EA080141EA070141EA0201C1607D
:104E70004BB98168012262F3CC21816081680222F2
:104E800062F34A218160016DBCF1000F21F0010144
:104E9000016505D0C168626D21F000411143C16018
:104EA0000020C4F88400012184F88110BDE8F0815D
:104EB000454518BF08280CD8B54218BFBD423FF47D
:104EC0006CAF45453FF469AF6AE7E0680F287FF6AD
:104ED0005CAF0120BDE8F081B0B5B8B0044602A8CF
:104EE000C0210025CDE93655CDE934553395FBF782
:104EF00047FA43F200412068C4F20101884201D020
:104F000038B0B0BD4FF40050029002A803951B9535
:104F1000FEF7E6FC08B1FBF7EFFE44F2E040C5F611
:104F20000200016941F400510161016901F400517D
:104F300001910199016841F010010160006833A9F5
:104F400000F01000019001984FF4A040339002202F
:104F500034900020CDE935000520379041F2000063
:104F6000C5F60200FDF74CFF38B0B0BD00000000F0
:104F70002DE9F04F81B0994617460E460446D0F809
:104F800000B0C56BFEF71CF894F8811001290CD114
:104F900080460120002E18BF002F02D101B0BDE8CD
:104FA000F08F94F88000012803D1022001B0BDE801
:104FB000F08F012084F88000042084F88100002014
:104FC000C4F884006666A4F86870A4F86A70E065A6
:104FD000A4F86000A4F86200A1682067B1F5C02FB2
:104FE0006067206804D1016821F40061016004E079
:104FF000C168022262F35241C160D4E900124FF647
:10500000FF7601204B68B2F5800F23EA06033B448C
:105010004B600B6843F001020A6003D10A6842F456
:1050200000720A60E26800EB5510102A2BD3B4F826
:105030006A10002900F0D28086B209F101050EE065
:10504000006B616E41F8040B6166B4F86A000138C8
:10505000A4F86A00B4F86A00002800F0BF80206855
:1050600041694269D207EBD1B4F86A20090401D53D
:10507000B242E5D3FDF7A4FF002DEBD0A0EB080072
:105080004845E7D397E0B4F86A10072A43D90029C6
:1050900000F0A4804FF6FF7109F1010A87B24E1E9D
:1050A00012E000BFBBF83010606E20F8021B4FF614
:1050B000FF716066B4F86A000844A4F86A00B4F8A6
:1050C0006A00002800F08A80216848694969C90798
:1050D000E8D1B4F86A1002040DD5B9420BD2BBF87E
:1050E0003000616E0880BBF8300021F8020F881C88
:1050F00061663146DDE7B4F86A10800401D5012904
:10510000D0D0FDF75DFFBAF1000FD8D0A0EB0800BA
:105110004845D4D34FE0002960D04FF6FF7109F124
:10512000010586B2CF1E11E090F83000616E087064
:105130004FF6FF70616E01316166B4F86A10084481
:10514000A4F86A00B4F86A00002847D020684169D2
:105150004269D207E8D1B4F86A200B041CD5B242E8
:105160001AD290F83000616E08702068616E4A1C97
:10517000626690F8300048702068616E4A1C626672
:1051800090F8300048702068616E4A1C626690F8A2
:10519000300048703846CDE7B4F86A2011F4C04FAB
:1051A00001D0032AC0D9FDF70BFF002DCAD0A0EB18
:1051B00008004845C6D3204601F0A2FCD4F884007C
:1051C00040F48070C4F88400012084F8810000203D
:1051D00084F88000032001B0BDE8F08F204601F084
:1051E0008FFC012084F88100002084F88000D4F82E
:1051F0008400002818BF012001B0BDE8F08F000036
:105200002DE9F0471D4617460E460446D0F800909B
:10521000FDF7D6FE94F8811001290BD180460120BC
:10522000002E18BF002F01D1BDE8F08794F8800050
:10523000012802D10220BDE8F087012084F8800017
:10524000032184F881100021C4F88410E665A4F8D5
:105250006070A4F862706166A4F86810A4F86A101F
:10526000A2682167B2F5C02F6167216803D1086881
:1052700040F4006203E051F80C2F60F352420A60E0
:105280004FF6FF72206841689143394441600168DC
:1052900041F0010101606168B1F5800F03D101683F
:1052A00041F400710160E168102934D3B4F8620060
:1052B000002800F0AB806E1C0FE000BFE16D51F8DC
:1052C000042B0262E165B4F862000138A4F86200C0
:1052D000B4F86200002800F09980206841698907CD
:1052E000ECD4FDF76DFE002EF2D0A0EB0800A84232
:1052F000EED3204601F004FCD4F8840040F4807022
:10530000C4F88400012084F88100002084F8800023
:105310000320BDE8F087B4F86200072933D90028DC
:1053200074D04FF6FE706E1C471C11E0E06D3946DC
:105330000088A9F820000220E26D1044E065B4F86E
:1053400062000844A4F86200B4F8620000285DD04E
:1053500020684169890708D4FDF732FE002EF3D09A
:10536000A0EB0800A842EFD3C3E7B4F8621002290B
:10537000DCD3E16B0029D9D0E16D0968016204201A
:105380004FF6FE71D8E7002840D04FF6FE706E1C35
:10539000A0F1020A471C10E0E16D097880F82010A6
:1053A00001203946E26D1044E065B4F8620008441B
:1053B000A4F86200B4F8620040B32068416989072C
:1053C00008D4FDF7FDFD002EF4D0A0EB0800A842A4
:1053D000F0D38EE7B4F86210042908D3E16B4129B9
:1053E00005D3E16D0968016204205146DAE7B4F89B
:1053F00062100229D0D3E16B0029CDD0E06D4FF6C9
:10540000FE710088A9F820000220CBE7204629463B
:10541000424601F0DDFB28B1D4F8840040F02000C2
:10542000C4F88400204601F06BFB012084F8810061
:10543000002084F88000D4F88400002818BF0120E0
:10544000BDE8F0870000000080B502F08DFA80BD55
:1054500070470000000000007047000000000000DE
:10546000704700000000000010B590F83C20012AB1
:1054700001D1022010BDCB6848F2FF7ED1E901C204
:1054800023F47C5322F47052CFF6F07E1A430CEAD8
:105490000E03D1F800C042EA030E2CF477230A6908
:1054A00043EA0E0322F47622D0F800E01A434B6957
:1054B0001A434EF4806322F4742C40F20042C4F28A
:1054C00001028C6993428A6A22F470224FF0010330
:1054D00042EA0C0280F83C3042EA044310D140F228
:1054E000000C23F07C724B6ACFF6F04CCC690CEACE
:1054F00003531A4324F00073096A1A4342EA010372
:105500000021CEF8443080F83C10084610BD000061
:10551000B0B590F83C20012A4FF002025CD0012384
:1055200080F83C3080F83D2040F2004C0268C4F224
:10553000010C42F4806363455368D2F808E002BF6F
:1055400023F470034C68234341F2FF740D68C4F2E6
:10555000000423F07003A24243EA050353600BDC0E
:1055600040F2FF73C4F200039A4215DCB2F1804F9F
:1055700027D040F2004317E040F2FF33C4F20103AA
:105580009A4216DC41F60003C4F200039A4218D096
:105590000023C4F2010309E040F60003C4F2000353
:1055A0009A420ED040F60043C4F200039A4208D05B
:1055B0000CE044F20003C4F201039A4201D06245B8
:1055C00004D12EF0800389681943916000220121E3
:1055D00080F83D1080F83C201046B0BD000000006F
:1055E00010B5044631B1082907D0042908D104F1C7
:1055F000450007E004F1440004E004F1460001E046
:1056000004F147000078012808D1022041B108299F
:1056100009D004290AD184F8450009E0012010BD11
:1056200084F8440004E084F8460001E084F8470070
:105630002068042202F034FB216841F2FF70C4F2BA
:1056400000004A6C814242F4004048640DDC40F2A4
:10565000FF70C4F20000814215DCB1F1804F29D007
:1056600040F20040C4F2000022E040F2FF30C4F2F9
:105670000100814212DC41F60000C4F200008142C8
:1056800018D0002012E040F60000C4F20000814271
:1056900010D040F60040C4F2000009E044F20000DF
:1056A000C4F20100814205D040F20040C4F2010082
:1056B00081420BD107228868C0F20102024000201B
:1056C000062A18BFB2F5803F00D110BD086840F02F
:1056D00001000860002010BD60B310B5044690F8CA
:1056E0003D0028B9002084F83C00204600F024F852
:1056F000022084F83D002068211D02F031FA0120CB
:1057000084F8480084F83E0084F83F0084F84000A4
:1057100084F8410084F8420084F8430084F844008F
:1057200084F8450084F8460084F8470084F83D007A
:10573000002010BD0120704780B584B00068B0F132
:10574000804F19D041F20041C4F20001884222D0BA
:105750000021C4F20101884232D144F2E840C5F68A
:105760000200816841F001018160806800F0010061
:105770000390039804B080BD44F2E840C5F60200EF
:10578000016841F001010160006800F00100029031
:10579000029804B080BD44F2E8400022C5F6020041
:1057A000016841F0200101600068002100F0200044
:1057B000019001983720FDF7DFFC3720FDF7D8FC7A
:1057C00004B080BD0000000090F83D10012917D101
:1057D000022180F83D10016841F2FF70C4F2000020
:1057E00081420FDC40F2FF70C4F20000814217DCFE
:1057F000B1F1804F2BD040F20040C4F2000024E011
:105800000120704740F2FF30C4F20100814212DCF7
:1058100041F60000C4F20000814218D0002012E0DE
:1058200040F60000C4F20000814210D040F6004073
:10583000C4F2000009E044F20000C4F20100814219
:1058400005D040F20040C4F2010081420BD1072292
:105850008868C0F2010202400020062A18BFB2F593
:10586000803F00D17047086840F0010008600020C8
:10587000704700000000000090F83D1001291BD186
:10588000022180F83D10016841F2FF70C4F200006F
:105890008142C86840F00100C8600FDC40F2FF7030
:1058A000C4F20000814217DCB1F1804F2BD040F2EE
:1058B0000040C4F2000024E00120704740F2FF30B5
:1058C000C4F20100814212DC41F60000C4F2000083
:1058D000814218D0002012E040F60000C4F200001F
:1058E000814210D040F60040C4F2000009E044F2CA
:1058F0000000C4F20100814205D040F20040C4F231
:10590000010081420BD107228868C0F201020240E7
:105910000020062A18BFB2F5803F00D17047086802
:1059200040F0010008600020704700000000000007
:1059300010B5044690F83C0001284FF0020008BF63
:1059400010BD0B46012184F83C10882284F83D00EC
:10595000CFF6CE72206881681140816019686F2986
:105960000BDDB1F1101F17DAB1F5005F25DA7029F0
:105970003FD0B1F5805F5AD039E02F2916DD4F298D
:1059800020DC302951D0402931D15968DA6802F041
:105990008FFB2068402148E02F22C0F21002914284
:1059A0001BDCB1F1101F40D020221CE0002918BFE1
:1059B00010293AD0202938D019E025D0B1F5801F20
:1059C00033D014E050292AD0602910D15968DA6800
:1059D00002F082FB2068602127E03022C0F2100232
:1059E000914222D04022C0F2100291421DD00120EB
:1059F0001EE0D3E90121DB6802F062F920688168CA
:105A000041F07701816012E0D3E90121DB6802F007
:105A100057F92068816841F48041816007E0596846
:105A2000DA6802F045FB2068502102F055F90020A9
:105A3000012184F83D10002184F83C1010BD0000C5
:105A40007047000000000000F0B581B00446006817
:105A5000C768066906EA0705A90727D4680756D468
:105A600028076CD4E80600F18280E80706D0206899
:105A70006FF001010161204600F062F917F0800724
:105A800018BF16F4025006D020686FF4025101616D
:105A90002046FFF7E1FC002F18BF16F4807011D1EB
:105AA000680618D4A8061FD401B0F0BD6FF002013B
:105AB000016101212177806980071ED02046FFF710
:105AC000BFFF20E020686FF4807101612046FFF77E
:105AD000BFFC6806E6D520686FF0400101612046F2
